:1000000000000220990100008946000041460000DE
:1000100041460000414600004146000041460000C4
:10002000414600004146000041460000894600006C
:100030008946000041460000894600003146000024
:100040008946000089460000894600008946000074
:100050008946000089460000894600008946000064
:100060008946000089460000894600008946000054
:100070008946000089460000894600008946000044
:100080008946000089460000894600008946000034
:100090008946000089460000894600008946000024
:1000A000F94300000544000089460000894600002D
:1000B0008946000089460000894600006D5C00000A
:1000C00089460000995D000089460000C55E000079
:1000D00089460000BD5F0000894600008946000097
:1000E00089460000894600008946000089460000D4
:1000F00089460000894600008946000089460000C4
:1001000089460000894600008946000089460000B3
:1001100089460000054B0000894600008946000022
:100120008946000089460000894600008946000093
:100130008946000089460000894600008946000083
:100140006959000089460000B5600000894600003A
:10015000AD61000089460000894600008946000024
:1001600089460000894600001144000089460000CD
:100170008946000089460000894600008946000043
:100180008946000089460000894600008946000033
:100190008946000089460000584B4CF2205210B5A9
:1001A0001A804DF628121A8000BF00BF04F070FAC2
:1001B000534B4FF030621A60524A9A60524ADA60EA
:1001C000524B4FF470021A60514A136813F4807353
:1001D00004D150490B604FF4A85313604E4B1A786A
:1001E000110703D51A7842F008021A704B4B4C499C
:1001F0002A221A704B4A4C4B8B4204D252F8040FFD
:1002000043F8040BF8E7494B494900228B4202D2DC
:1002100043F8042BFAE74749474A002352F82300E2
:1002200041F823000133662BF8D1444B444A802126
:1002300003F8011B9342FBD1424B3E4A1A60424BEA
:100240008A221A70A3F5805324225A70A0221A70B1
:100250009A799207FCD59A79D406FCD43B4A9379D3
:1002600003F00C03082B394BF9D103221A714622F3
:100270005A719A799006FCD5344A9179334B4906E4
:10028000FBD5334A4FF08271116009215160202261
:100290001A709A7902F00C020C2AFAD12D4B2E4AD0
:1002A0001A602E4B2E4A1A6000225A60072243F829
:1002B000042C2C4AC3F80C2D62B604F0D7FA154B67
:1002C0001B68DA0705D5284804F064FA274B284A4A
:1002D0001A60284B1B785B0609D5244C244B2268F6
:1002E0009A4204D1204804F055FA0023236006F016
:1002F00025F804F0D3F905F0F9FBFEE70E200540E0
:1003000030800440823F04000100002B88ED00E0B3
:1003100010D0034014D0034002D0074000E0074053
:100320007C1FFF1FF4780000F814FF1F7C1FFF1FC5
:10033000082BFF1F0010FF1F0000000000E400E07A
:1003400056E400E008ED00E00050064000400640A2
:100350004480044004800440C010050014E000E024
:10036000BFD4010000002020D22BF0031CE003408A
:10037000A5C3945A00F00740FFFFFFFFFFFFFFFFF8
:10038000FFFFFFFFFFFFFFFFFFFFFFFFFFFFFFFF7D
:10039000FFFFFFFFFFFFFFFFFFFFFFFFFFFFFFFF6D
:1003A000FFFFFFFFFFFFFFFFFFFFFFFFFFFFFFFF5D
:1003B000FFFFFFFFFFFFFFFFFFFFFFFFFFFFFFFF4D
:1003C000FFFFFFFFFFFFFFFFFFFFFFFFFFFFFFFF3D
:1003D000FFFFFFFFFFFFFFFFFFFFFFFFFFFFFFFF2D
:1003E000FFFFFFFFFFFFFFFFFFFFFFFFFFFFFFFF1D
:1003F000FFFFFFFFFFFFFFFFFFFFFFFFFFFFFFFF0D
:10040000FFFFFFFFFFFFFFFFFFFFFFFFDEF9FFFF23
:1004100010B5054C237833B9044B13B10448AFF33E
:1004200000800123237010BD7C1FFF1F000000000F
:10043000F8780000084B10B51BB108490848AFF325
:1004400000800848036803B910BD074B002BFBD0A0
:10045000BDE81040184700BF00000000801FFF1FCC
:10046000F87800007C1FFF1F0000000010B5044B4F
:10047000044640F8183B01F03FFD204610BD00BF88
:10048000AC74000008B508211B4805F07BF9FE217B
:100490001A4801F04FFD38B91C21194805F06EF8D3
:1004A000184805F03FFBFEE7174800F061FE002802
:1004B000F2D07421154800F00DFE0028ECD0002188
:1004C000114800F0B7FE00210F4800F0C5FE0421DE
:1004D0000D4800F09FFE0021112004F073F9002167
:1004E000084604F06FF90A4B0A491B680A4AC3F32D
:1004F00040030B70137008BD0002FF1F1024FF1F84
:10050000E46E00008C16FF1FD01FFF1F5822FF1F34
:1005100050F00F40CE1FFF1FCD1FFF1F2DE9F041F0
:100520003F4E4048404D414F092282B0102100F01B
:1005300023FD32682F6000236B722B612B72EB60FE
:100540000AB969E01A465369002BFBD155614FF097
:100550000008374B3748384C2B60C5F81480A5F895
:100560000480A5F8068001F0B9FC2F4801F09EF840
:10057000324A33492C4805F0CFFE022004F118021C
:1005800027604346414684F80880C4F80C806072B6
:100590002261274600E03A6942F82310627A264831
:1005A00001339A42F7DC32681D4B0AB936E01A462D
:1005B0005369002BFBD154610026224B1E48236057
:1005C0006661A680E68000F05DFF1F4B18461E7234
:1005D0001D605C605E72DE6005F096F91B4B0122C7
:1005E0001846DE601D605C601A725A7205F08CF964
:1005F000174800F0BBFD174B17491A680092009886
:100600001B680193019B154A0860A3F5EA43303B40
:10061000136002B0BDE8F081356098E71860CBE761
:100620008C27FF1F5822FF1FD81FFF1FE06E0000FE
:10063000AC740000F01FFF1FAC1FFF1FF814FF1F5A
:100640006D040000A07400004822FF1F981FFF1FC8
:10065000D01FFF1F8C26FF1FD41FFF1FA81FFF1FC7
:10066000274A1368D90300D5704770B5254982B071
:100670000B68009300981368DB03FCD50B68224CD1
:100680000193019B22781B1A9AB9B3F5FA7F0EDB0E
:100690001E4B1F481A7004210123237000F0BAFD7D
:1006A0001C491D4801F04EF8642004F091F802B096
:1006B00070BD194801F010F86FF02701144800F0E0
:1006C000A9FD1649144801F03DF8104A144B0026C4
:1006D000167026701E6035B2002422B2002329460F
:1006E0000134104800F0BEFC092CF6D10136102E62
:1006F000F1D14FF47A7004F06BF802B070BD00BF16
:1007000050F00F408C26FF1FCC1FFF1F8022FF1FC1
:10071000D01FFF1F106F0000D81FFF1F046F0000C5
:100720007C22FF1F5822FF1F3D4B2DE9F043DFF8CD
:1007300024811B6898F800203A4FC3F340039A4283
:1007400085B03B701AD0384C0A2004F041F8237869
:10075000002B38D13B78334D9BB1DFF8D89099F816
:100760000020002A39D13149314A0968039103999F
:100770001160002289F8002088F8003005B0BDE83B
:10078000F0832A4C2A49226802920868029A40F6AD
:10079000C311121A8A4210D9264E32786AB904213E
:1007A000254800F037FD2549254800F0CBFF0A20F9
:1007B00004F00EF801222B78327022680192214A4F
:1007C00001991160D8E71E48164D00F085FF0023FF
:1007D00023703B78002BD4D0BFE76FF00901164897
:1007E00000F018FD1849164800F0ACFF0A2003F08D
:1007F000EFFF164B00261E6089F80060267035B2A8
:10080000002422B2002329460134114800F02AFCBA
:10081000092CF6D10136102EF1D13B78A3E700BFA9
:1008200050F00F40CD1FFF1FCC1FFF1F8C26FF1F56
:10083000D41FFF1F8022FF1FD01FFF1F1C6F00004F
:10084000D81FFF1FA81FFF1F046F00007C22FF1F7F
:100850005822FF1FCE1FFF1F2DE9F04782B0FFF780
:1008600063FFFFF7FDFE4C494C4A0B680093009B69
:10087000126846F2A7109B1A83423AD8DFF83891E3
:10088000DFF81C8198F80030454C002B67D199F8AF
:10089000005065BB98F8003033B3DFF820A1414F1A
:1008A000DFF81C912EB200243B683F48DFF8F4804B
:1008B0002A191344A9FB0312120902EB4202A3EB0B
:1008C000C203314622B21AF80330013400F0CAFBE9
:1008D000092CE9D10135102DE4D1D8F80030172BBF
:1008E00014BF013300233B6002B0BDE8F087002550
:1008F000D3E70B680193019BDFF8BC9046F67811B3
:100900009A1A8A4245D899F80030002B41D06FF0EE
:1009100009012648DFF88880224F00F07BFC24493B
:100920002448002600F00EFF0A2003F051FF88F84B
:10093000006089F800603E6035B2002422B20023D6
:1009400029460134184800F08DFB092CF6D10136F8
:10095000102EF1D198F80030114C002B97D015488B
:1009600001F058F9002892D10E4F89F8000020704C
:100970003860064635B2002422B2002329460134ED
:10098000094800F06FFB092CF6D10136102EF1D189
:100990007DE7DFF80C8075E78C26FF1FA81FFF1F7F
:1009A000CC1FFF1F7C22FF1F5822FF1FD01FFF1FDD
:1009B000046F0000D81FFF1F8022FF1FFC14FF1FC1
:1009C000ABAAAAAA00207047704700BF2DE9F04FDC
:1009D00085B09946BDF93870BDF83CA0BB1AC1EB93
:1009E000090B002BB8BF5B42BBF1000FB8BFCBF1C6
:1009F000000B5B450D4616460093804648DC4D458E
:100A00003A4633464CDC194613460A46C5EB090103
:100A10009B1A89B2002B0CB2B8BF5B4204EBD474B2
:100A2000BE42ACBF4FF0FF3201224D45039102920E
:100A30004FEA640429DC9BB201930DE0D8F8007002
:100A40003F69B847019BE41AA3B21CB20135002CE0
:100A50002DB211DBA94518DB009B5B452A465346A6
:100A600031464046EADCD8F800205346176929464B
:100A700032464046B847E5E7029A1644039AA9452C
:100A800002EB030436B224B2E6DA05B0BDE8F08F1B
:100A90004A462B46B94635464D4517461E46B2DDF9
:100AA000304629463E464D4607468946AEE700BFDA
:100AB0002DE9F04782B00568BDF82C70BDF928908B
:100AC00000970446D5F81CA090460D461E46D04718
:100AD0002368009709F1FF324244D3F81CA029464D
:100AE0003346204612B2D04723680097D3F818A0A7
:100AF00042464B4629462046D04720680A97711E39
:100B00002944856909B24B4642462046AC4602B0AC
:100B1000BDE8F047604700BF30B583B0013B1344E8
:100B2000BDF8185004681BB28DE828000B466469B4
:100B3000A04703B030BD00BF30B583B00468BDF836
:100B400018500092013B0B4401951BB26469A04709
:100B500003B030BD2DE9F0475F1882B0B942BDF94E
:100B60002890BDF82C800FDA0C46054692462B687B
:100B7000CDF80080214601349E6952464B462846F6
:100B800024B2B047BC42F2DB02B0BDE8F08700BF40
:100B900010B582B0B0F90C200191016800920022DA
:100BA0004C6AB0F90A301146A04702B010BD00BF30
:100BB000704700BFF0B4002401264FF6FF75094FBF
:100BC00007600471C475C48104824476C46186756B
:100BD000067685824582C180028141818281F0BC96
:100BE000704700BF307400002DE9F04F91B082468D
:100BF0000691C069BDF868100791BDF86C100491AA
:100C00009DF87090002800F08380047A03C81B1BB5
:100C1000DBB201EBC303B9F1010FD9780B9193F962
:100C200005101E8893F802B00F9193F906306BD926
:100C300009B2099119B20C910B99002954D092B2C2
:100C40000021D3180D9208910E930F460C46804652
:100C5000BBF1000F41D0BDF820200C9B03971FFA79
:100C600089F1D31813FB01F304910E990A440D99ED
:100C70000B4412B21BB20A920593002505E0013520
:100C8000EBB264005B45E4B224D2039B2B445A07C9
:100C900003D1731C18F806409EB22306EFD5099BBA
:100CA000059AE918BDF8103011FB03F1069B0FFA05
:100CB00089FE1944B9F1010F734609B2504616D0A6
:100CC000DAF800C0079F0197CDF800E0DCF8247047
:100CD000B847D4E7039F5F44FFB2089B0B9A0133E8
:100CE0000893DBB29A42B3D811B0BDE8F08F0F9BE6
:100CF000069A9918DAF800300A9A1B6929441F46A7
:100D000009B2079BB847BAE700210C91099193E714
:100D1000BAF90A10069CA142E6DDBAF90C1091421C
:100D2000E2DD062111FB09410029DDDD02EBC901ED
:100D30000029D9DD9AF8191019B9AF2B84BF0133F6
:100D4000DBB24049BDF818000C9003EB8303CB18CD
:100D50000E93062392B20A9300230D9209931FFA71
:100D600089FBCDF82090099B0D9D0998BDF9208045
:100D7000052B1CBF0E9AD75C0C9B2A4600FB0B313F
:100D800002F1080213FA80F308BF002709B292B2F9
:100D90001BB2059106920B932C462E4603971BE03F
:100DA000089B0599012B2AB2434650462CD0DAF80D
:100DB00000E0079F0197CDF80080DEF82490C84737
:100DC000039B5B0801340393069BA4B25D445E441D
:100DD000A342ADB2B6B220D0039BD907E0D4079BA3
:100DE000049A05999342504632B24346E8D0089F90
:100DF000012F1DD0DAF800E0049F0197CDF80080A4
:100E0000DEF82490C847DBE7DAF80020079BD2F829
:100E100010900B9922B2C847D2E7099A0A9B013277
:100E2000013B52B213F0FF0309920A939BD15BE797
:100E3000DAF80020049BD2F810900B9922B2C84730
:100E4000BEE700BF286F0000F0B5C36985B0044657
:100E500033B30A2969D00D294BD01A7A914248D36D
:100E6000587A884245D38A1A5D68D2B205EBC2052A
:100E7000AA78002A50D0E87800284DD0207E00289B
:100E80003AD095F905E0B4F90E00A67DB4F90A70E0
:100E9000724406FB0202BA4262DAB4F9102030E072
:100EA0000A2956D00D2924D0027E002A4BD0B0F951
:100EB0000E00A57DB4F90A60062212FB0502B242BB
:100EC0003EDB228AE38102EBC50212B2184622827F
:100ED000A78A668A02950B468DE8C0000146204627
:100EE000FFF782FEA37DE28903EB430302EB43039A
:100EF000E381012005B0F0BDA67DB4F90E00B4F980
:100F00001020B4F814E0678A02960B468DE8804002
:100F100001462046FFF768FE2979E389A27D01207A
:100F200001FB0233E38105B0F0BD0022C2819A7A51
:100F3000817D038A01FB02330382012005B0F0BDED
:100F4000B4F91020C4E7857DB4F91020B0F90E0083
:100F5000BEE7028A817DC38102EBC1030382C8E739
:100F60000020E0819B7A228A03FB062212B22282B1
:100F7000C7E700BFC07D704710B50446FFF71AFEF3
:100F8000014B2360204610BD6874000070B50D4C05
:100F900090F8203001255B000E462046FD2184F8A4
:100FA0003B3084F85E5084F85D5002F063FF3146B8
:100FB000204602F05FFF29462046BDE8704003F05E
:100FC00089B800BFA815FF1F2DE9F04190F8211046
:100FD000124E8046FFF7DAFF2425012798F82030CB
:100FE0000E4886F85E705B00294686F83B3086F82E
:100FF0005D7002F03FFF18240021084802F03AFF1C
:10100000631E13F0FF04F7D1183501210348EDB238
:1010100003F060F8B42DE1D1BDE8F081A815FF1F01
:10102000F8B507460E4C1E461546FFF7AFFF97F87A
:101030002000294642000125204684F83B2084F800
:101040005E5084F85D5002F015FF3146204602F0F4
:1010500011FF29462046BDE8F84003F03BB800BF29
:10106000A815FF1F2DE9F0410C4615461E46074600
:10107000FFF780FF022825D003281ED0012817D0B3
:10108000A3B20F2B12D8ABB2082B0FD82434FF2EEB
:10109000334604EB051228BFFF2397F8211038468A
:1010A000D2B2DBB2BDE8F041FFF7BABFBDE8F081D4
:1010B000C5F10F0325461CB2E2E7C4F108032C4634
:1010C0001DB2DDE7C4F10F04C5F1080224B215B268
:1010D000D6E700BF70B50646224800250C4602F050
:1010E000FBFE21491F4802F041FF2B460A220B213B
:1010F000304686F8204086F82150FFF791FF0A20FD
:1011000003F066FB304601230A220B21FFF788FF1C
:101110002B462A4630460B21FFF782FF96F82130F6
:10112000082B304628BF2B4601220B21FFF778FF02
:101130003046FFF749FF0024E2B2FF23294601347D
:101140003046FFF76DFF122CF6D10135EDB2082DB8
:10115000F1D13046002306220B21FFF761FF012069
:1011600070BD00BFA815FF1F801A0600704700BFA2
:1011700010B5054C204602F0AFFE2046034902F0B0
:10118000F5FE012010BD00BFA815FF1F801A060044
:1011900038B5124C0125B023204684F83B3084F842
:1011A0005E5084F85D5002F065FE2946204602F04C
:1011B00091FF2B462A462046582103F025F894F843
:1011C000392094F838309A42FDD005D9E21801331D
:1011D00084F83830107E38BDFF2038BDA815FF1FB9
:1011E00070B50B4C16460125B023204684F83B30E1
:1011F00084F85E5084F85D5002F03CFE3146204693
:1012000002F038FE29462046BDE8704002F062BF79
:10121000A815FF1F1E2907DC11F11C0FB8BFE4221F
:1012200006DA0521FFF7DCBF1E220521FFF7D8BF34
:10123000CAB2F6E7032900D9704738B50C46072132
:101240000546FFF7A5FF00F0FC02224328460721D0
:10125000BDE83840FFF7C4BF3F2900D970470A46B0
:101260000321FFF7BDBF00BF10B5044604F022FC08
:10127000204610BD024A0349034805F04DB800BF9F
:10128000F814FF1F691200008422FF1F38B5074DB4
:10129000074C08482A46214605F03EF82A462146D2
:1012A0000548BDE8384005F037B800BFF814FF1F07
:1012B000691200008C22FF1F9422FF1F024A03497B
:1012C000034805F029B800BFF814FF1F6912000099
:1012D0009C22FF1F024A0349034805F01DB800BFC6
:1012E000F814FF1F69120000A422FF1F024A0349DD
:1012F000034805F011B800BFF814FF1F6912000081
:10130000AC22FF1F024A0349034805F005B800BF9D
:10131000F814FF1F69120000B422FF1F38B5002126
:10132000054604F0E5FA01210446284604F0E0FAF7
:1013300072B6F4B1154A1368EBB115490D680DB3D7
:1013400015600C6098B1134A1468B4B112490D6865
:10135000ADB11560086062B613B1184604F08AFAA0
:1013600024B12046BDE8384004F084BA38BD0446B4
:10137000F1E72346E6E71460E4E71060EBE7086076
:101380002C46E8E70C602B46DCE700BFD022FF1FAD
:10139000C022FF1FBC22FF1FC422FF1F2DE9F843FC
:1013A0002F4A30481168304B096812792F4E02706D
:1013B000994230682E4F33BF1946A3F500719C4601
:1013C00001F5007C002849D02A4A294B1568002DD8
:1013D00008BF1D4605F1040E041D5EF8043B54F8D9
:1013E000048B9AB202F5FF421FFA88F97F321B0C78
:1013F000120909F5FF4903F5FF43120409F17F09BA
:101400007F334FEA184842EA191241F8082B1B09AA
:1014100008F5FF481B0408F17F0843EA18138C45C0
:1014200041F8043CD9D8B84206D004F023FA124B54
:101430000022196831601A60BD4207D0284604F0C6
:1014400019FA0D4B0022196831601A600B4B1B789A
:1014500013B10B4B01221A60BDE8F8833846B3E79D
:10146000C822FF1F1F800040200CFF1FD022FF1F3B
:10147000D422FF1FBC22FF1FC022FF1FD823FF1F43
:1014800008E200E0F8B5012149484A4F4A4E4B4D69
:1014900004F0ACFA4A4A4B4913684B48802443F4A1
:1014A000405313600C704FF482723C70002105F0C1
:1014B00067FA0024348001202C80083403F088F976
:1014C000A3B2B3F5006F1CB2F4D1404B1B685B02B2
:1014D00008D53F4B1A6848F6A273134048F6A2722B
:1014E000934253D039493A4A0B683A4F3A4D3B48F8
:1014F0003B4C43F480030B604FF0010E40F24F561B
:1015000048F6A37140F20113C7F800E02E601160A5
:1015100014600360264C334A236827491A6004226A
:101520009A802279196102F1804202F504322E4E2E
:101530002E4D9E6040F201214FF48050D980DD6035
:1015400098824FF480712A4FD98206260025B02058
:10155000D9839F619E831570107004F0EDF9227994
:10156000244B254E187053119B0003F16043234C0C
:10157000327003F5614302F1100002F01F070121F0
:101580001F4D44F82050B9401960F8BD124B1A683D
:1015900040F24F539A42A5D10E4B1B68012BA1D1AB
:1015A0000E4B1A6840F201139A429BD1B2E700BF7A
:1015B000C822FF1F21D00C4000C00C4000D00C40BE
:1015C0002C80044021C00C40D422FF1F3C800440EA
:1015D000006003400C60034004600340106003405F
:1015E000A28F0100200AFF1F0400807F00FCFFFF84
:1015F00000E0FFFFD823FF1F1B8000400010FF1FEB
:101600009D130000024A0349034804F085BE00BF51
:10161000F814FF1F69120000C822FF1F024A034985
:10162000034804F079BE00BFF814FF1F69120000E0
:10163000DC23FF1F024A0349034804F06DBE00BFCC
:10164000F814FF1F69120000E423FF1F024A034938
:10165000034804F061BE00BFF814FF1F69120000C8
:10166000EC23FF1F024A0349034804F055BE00BFA4
:10167000F814FF1F69120000F423FF1F024A0349F8
:10168000034804F049BE00BFF814FF1F69120000B0
:10169000FC23FF1F024A0349034804F03DBE00BF7C
:1016A000F814FF1F691200000424FF1F38B5044618
:1016B000C06D0C23002584F86B3284F86C322565EC
:1016C00010B104F0D7F8E565206E18B104F0D2F837
:1016D0000023236638BD00BF38B572B690F86B3270
:1016E0000C2B26D0044600230C22C06D256EE3652A
:1016F000236684F86B2262B608B104F0BBF815B11A
:10170000284604F0B7F804F1180000F0FDFB0A4B7E
:101710001B689B030CD4094A13881BB1013B9BB285
:10172000138043B940210648BDE8384002F066BB4B
:1017300038BD62B638BD38BD308004400C24FF1F70
:101740001815FF1F30B589B00D460446FFF7C4FFDA
:101750002C4B1B689A0346D572B601232A4668466D
:10176000294900F093FC08AA9DF8040012F8143DE2
:101770000299207784F82430216204F1250304F1D2
:10178000320012F8011F03F8011B8342F9D1079BB5
:101790006363684600F0B0FB62B604F1180000F025
:1017A000C1FB054668B9174B1B689B0306D4174A53
:1017B00013880BBB4021164802F020FB284609B0D5
:1017C00030BD0C2000231421082284F86C02284626
:1017D000A4F86832A4F8663284F86A32216584F885
:1017E0006B2209B030BD4021094802F0F1FA074AE6
:1017F000138801331380AFE7013B9BB21380002BAA
:10180000D8D0DBE7308004401024FF1F0C24FF1FDA
:101810001815FF1F836B9AB2012A01D00020704770
:10182000C26B4AF644418A4222D045F222618A4282
:101830001BD042F611318A42F0D10F4904221B0C11
:10184000012B04D0022BE9D1490842F00102B0F883
:101850004630082B04D0102BE0D1490842F0020298
:10186000816580F86C220120704704490422E6E774
:1018700003490022E3E700BF34EE35171AF79A0B4D
:101880008D7BCD052DE9F04FB0F8665200F166076B
:1018900083B03D4409B3DFF874B3DFF874A30446A2
:1018A0000E464FF008084FF0000994F86B320C2BED
:1018B00000F24681DFE813F011001100C1008C0036
:1018C00011001100110011000401150049007600FB
:1018D0001100BCF1000F00F04281002003B0BDE810
:1018E000F08F236D94F86A12B34228BF334604F197
:1018F00038001A4608442946009302F08FFD009BE9
:1019000094F86A02B4F86622216D0193C91A18444A
:101910001A4484F86A02A4F866222165009100291D
:10192000DBD12046FFF776FF002800F00981019BFC
:101930000099C4F850800A22F61A1D4484F86A12ED
:1019400084F86B22002EB0D1C7E7236D94F86A1299
:10195000B34228BF334604F138001A4608442946EA
:10196000009302F05BFD009B94F86A02B4F86612E3
:10197000226D18441944D21A84F86A02A4F8661237
:101980002265002AA9D1A06BE16B216558451D4451
:10199000A6EB030600F0EA800B2384F86B32002EDE
:1019A00083D19AE7236DB4F866229E42C0F0248169
:1019B0001A440A21F61AC4F850801D4484F86A9229
:1019C000A4F8662284F86B12002E7FF46EAF84E7D1
:1019D000236D94F86D129E4228BF1E469A1B226505
:1019E000002900F0B680E16DB4F86430A06B01EB23
:1019F000430C4FF0000EACF8040084F86DE2206E4A
:101A000095F801C015F802EB00EB430001339BB2DF
:101A10004EEA0C2E7F2BA4F86430A6F10206A0F843
:101A200004E000F2CA80002E40F09380002A00F00B
:101A3000968084F86D62304650E7236DE16D9E42DA
:101A400028BF1E46C6EB030C0235C4F850C003E0A5
:101A50000235002E3FF43DAFB4F8642015F8020CB7
:101A600015F801EC531C9BB201EB420240EA0E2038
:101A70007F2BA4F86430A6F102069080E8D90022FA
:101A8000204603F01BFF0122E16D204603F016FF04
:101A9000E06D03F0EFFE236D206E1E44ED1B00236E
:101AA000A4F866522665E36510B103F0E3FE266DE7
:101AB00016B90C2384F86B32012003B0BDE8F08F17
:101AC000236D94F86A12B34228BF334604F13800FC
:101AD0001A4608442946009302F0A0FC009B94F8A3
:101AE0006A02B4F86612226D18441944D21A84F8B6
:101AF0006A02A4F866122265002A7FF4EEAEA16B9A
:101B000051451DD1216C4048814219D100F15B4003
:101B1000616C00F5F11000F60F40814210D1A16C0C
:101B2000A1F1100008280BD80920F61A1D442165E0
:101B300084F86A2284F86B02002E7FF4B6AECCE6FD
:101B40000C23002084F86C3284F86B3203B0BDE8BB
:101B5000F08F023E287895F801E014D1F2B90C23F9
:101B6000002084F86B3203B0BDE8F08F94F86C323B
:101B700084F86B32DB0784F86D2216D46165002E81
:101B80007FF493AEA9E6E16DB4F8643001EB430C49
:101B900040EA0E200235ACF8040030E72B88A3633E
:101BA0000223304684F86D3298E603F017FE206673
:101BB00000283FF492AE216DE0E70022204603F0BA
:101BC0007DFE4FF00008E06D03F054FE0122216E0F
:101BD000C4F85C80204603F071FE206E03F04AFEDC
:101BE000206DC4F86080ED1B3044A4F86652206577
:101BF00000283FF45EAF5FE79B1B16442365A4F803
:101C0000666200206AE600BF574156456461746110
:101C10005249464690F86B0207288CBF00200120ED
:101C2000704700BF90F86B320C2B00F0A8802DE9B4
:101C3000F041044603F0D2FDE065002800F08F80FB
:101C400094F86B32072B40F28C8000232366B4F8A3
:101C50006832B4F866120022591A9142A4F864203E
:101C600005DD2046FFF70EFE002840F0968094F830
:101C70006B320C2B04F1180625D0304600F0A8F882
:101C800008B304F166074FF000080FE0A4F866827D
:101C900094F86B52FFF7F6FD94F86B3200285CD194
:101CA0000C2B10D0072D1AD9072B18D839464FF412
:101CB0000072304600F022F983B219462046A4F89B
:101CC0006832002BE2D1304600F01EF9374B1B681A
:101CD0009A0355D50C2384F86C3284F86B32E06D8E
:101CE000F0B1B4F86430BBB17F2B09D800EB4303EB
:101CF000023300F58175002223F8022FAB42FBD19D
:101D000001460022204603F0D9FD94F86B32072BE0
:101D100001D8DB0743D5E06D03F0ACFD0023E3659C
:101D2000206EE0B1B4F864308BB17F2B09D800EBA2
:101D30004303023300F58175002223F8022F9D42F0
:101D4000FBD101460122204603F0B8FD206E03F0CE
:101D500091FD00232366BDE8F0810C2BB3D0BDE8D4
:101D6000F081D9077FF571AF03F038FD20660028B8
:101D70007FF46DAFE06DBDE8F04103F07BBD7047CF
:101D80000B4A138823B1013B9BB21380002BA1D1D6
:101D90004021084802F032F89CE7BDE8F0810122BA
:101DA000E16D204603F08AFDB5E700BF30800440B6
:101DB0000C24FF1F1815FF1F10B582B002AB02687C
:101DC00003F8011D546819460122A04702B010BD56
:101DD000C06938B18369C06847F6FF72181A90422B
:101DE00028BF1046704700BFC36910B504463BB119
:101DF00000201871E06901F039FCE3691B791BB11F
:101E000001232371002010BD10BD00BFC06978B14F
:101E100000B583B001220DF1070101F0F9F90128A5
:101E20000CBF9DF807004FF0FF3003B05DF804FBD6
:101E30004FF0FF30704700BFC369C3B110B582B027
:101E40000446012218460DF1070101F0E1F90128CD
:101E500003D04FF0FF3002B010BDE0699DF807409D
:101E6000C168013901F090FA204602B010BD184651
:101E7000704700BFC06908B101F0B8BA704700BF31
:101E80002DE9F04105464FF47A731348AB60002307
:101E900028602B712B7324200C46904604F076FAB0
:101EA000E861B0B1064604F1200E20686168A268BE
:101EB000E36837460FC7103474453E46F5D12068B5
:101EC000386041460C2205F10D0004F025FE002388
:101ED0006B762846BDE8F081B87400004FF47A7242
:101EE000044982600022016002710273C261427380
:101EF000704700BFB8740000704700BFC06908B1E8
:101F000001F086B9704700BFC36953B110B50446EC
:101F1000184601F005F9E06904F040FA0023E36196
:101F200010BD7047C06918B18079003018BF01201A
:101F3000704700BFFE2938B5054617D00A46012173
:101F400000F0F0FD03460BB9002038BD2C1D2046E3
:101F50000122294601F07AFE98B1214605F12C00B4
:101F600001F02EF9003018BF012038BD017000F0DB
:101F7000DDF9044600F0C8F9B4FA84F35B09A870EF
:101F8000E1E702462946204601F060FE0028E4D140
:101F9000002038BD2DE9F04F99B04FF00008DFF870
:101FA000E8A08DF81C808146043106A89346019371
:101FB0008DF81E808DF840808DF84280CDF818A0F5
:101FC000CDF83CA001F0FCF806AE5D460FAF2F2126
:101FD000284604F039FD441BE4B2294608B32B78A7
:101FE0002F2B02A81BD00C2C28BF0C24224604F057
:101FF00093FD18AB2344384603F8588C01F090F851
:10200000012302AA3146384601F024FB88B330464A
:1020100001F086F8334625443E461F46D7E7013592
:10202000D5E7019831797279B379B468377DCBEB14
:1020300005050560F068356989F8041089F8052000
:10204000B16989F80630F269336AC9F80C0048466C
:10205000C9F800A0C9F80840C9F8105089F81470F0
:10206000C9F81810C9F81C20C9F8203019B0BDE80B
:10207000F08F89F8040089F806004846C9F800A0E6
:1020800019B0BDE8F08F00BFE0740000F0B59DB05E
:1020900005461F4601A86B461446FFF77BFF009AD2
:1020A000A35C1444002B42D09DF80A202F4E0A96C0
:1020B00000238DF82C308DF82E30002A31D00AA85C
:1020C0003B46224601A901F0C5FA50B301A801F030
:1020D00027F817F0060F43D19DF82C700C9B9DF844
:1020E0002DE0139622469DF82E408DF850708DF805
:1020F000524015930D990E989DF83C70109E119CBE
:10210000129B8DF851E01691179013A928468DF86F
:10211000607019961A941B93FFF7B2FE28461DB003
:10212000F0BD2846FFF7DAFE28461DB0F0BD9DF849
:1021300008700E4E9DF809409DF80A30039A8DF8FC
:10214000507013968DF851408DF8523015920499C5
:1021500005989DF81870079E089C099B044AD2E7D1
:102160000AA8109901F010F9B6E700BFE07400006A
:10217000D4740000064B074ADA620221002259603B
:102180009A7083F8242083F8302083F83220704737
:102190001024FF1FE074000010B4114C114B226892
:1021A00011491340184322F0080240F460202260D5
:1021B00020600B681C0706D40C4B01E0013B02D0E9
:1021C0000A681207FAD5064B094A5DF8044B40F03D
:1021D00008001860136843F480131360704700BF51
:1021E0002C100B400700F0FF24100B40FFFF0F00E6
:1021F00030100B402149224A0B6843F080030B60EA
:1022000011461368DB07FCD40B689B07F9D41D4B00
:1022100030B44FF08072194D186000E0A2B1296807
:10222000194B164C0B40013A002BF7D062B1012B31
:102230000AD1236813F0800F23680FD043F00113F5
:102240002360032030BC70470C4A136843F47023AA
:1022500043F001031360012030BC704713F4803356
:1022600005D0236843F0011323600520F4E72268BA
:1022700042F0010218462260EEE700BF30100B402A
:1022800024100B400C100B4001000E0070B50D4DDA
:102290000D480E4E00232B60FFF7ACFF632403466E
:1022A00006E04BB92B60FFF7A5FF013C034605D0C4
:1022B000326805485207F4D4184670BD002808BF9C
:1022C000052070BD08100B400000DB0C24100B40F3
:1022D00070B5094C0023054623600848FFF78AFFC4
:1022E00000B170BD064E074833682560FFF782FFD6
:1022F0000028F6D1336870BD08100B4000001A3773
:1023000010100B4000000229074B1A784AB99A783E
:102310002AB15B78002B0CBF0220032070470120FC
:1023200070470020704700BF6424FF1F2DE9F0476D
:10233000664D674E2B68674F6749684C6848694A25
:10234000DFF8C4E143F400332B60336843F40053F7
:1023500033603B6843F002033B600B6843F00203C9
:102360000B60236805F59F4506F59F4607F59F47D7
:1023700001F5D12123F00103236001F2EC71002368
:102380005835543654370360574813602B600A465B
:1023900033603B60CEF800300860136813F0807340
:1023A000FBD1524C524A5348534923604FF4813574
:1023B0004FF01013282405600C6041F29000136068
:1023C000FFF7EAFE4D4A13689C07FCD1454EDFF843
:1023D00010E14B4C4B4A4C494C4F4D4D4D4840F24F
:1023E0004343CEF8003033604FF4886626601360B4
:1023F0004FF6FF76484C3B6002F5C8220B60203256
:102400002E604FF4FA710460136843F000631360A8
:1024100013681801FCD40139F6D13D4A37481368D6
:1024200043F0800313600368DA0308D43B4B0220B7
:1024300059709970187059609960BDE8F087374CF1
:10244000374E21706170A170084631606160A160F3
:10245000FFF7D0FE68B9334D33482B684FF4D5737E
:102460003360FFF7C7FE40B92B682B68B3F5D57F03
:1024700029D001202070BDE8F0870528F9D100207F
:10248000FFF726FF0028F4D1264B1A6812F4401FEC
:1024900058D06278254FDFF89880002A05461E46FE
:1024A00008BF4FF4401704E03268002A42DB45457C
:1024B00046D03846FFF70CFF01351A4B0028F3D001
:1024C0000120BDE8F08701236370D8E73080044025
:1024D000388004403C8004404080044000D00040EC
:1024E00000D0044004D0044000800001C0100B4024
:1024F00044100B4004100B4028100B4024100B40DC
:1025000008D004400CD0044014D0044010D0044043
:1025100030100B4034100B40BB007F116424FF1FB0
:1025200008100B4010100B4000001A08000030404B
:10253000A0860100544A954202D01B685B0001D47A
:1025400000236370514E524800233360FFF752FE60
:10255000034600288DD14F4D4F482A683360FFF75E
:1025600049FE002885D12B682B684C484C4D1B0C2C
:102570001B0433606360FFF73DFE00287FF479AFF2
:10258000484B49491A68120EEA700A6812F4400F63
:102590006FD1196845481B68026800689B0203F404
:1025A000406343EA9253C0F3C2105A1CC1F30321A3
:1025B000831C093902FA03F38B40AB60334E636826
:1025C00033603B48364FFFF715FE00287FF451AFCC
:1025D000304D38482B684FF400733360FFF70AFE24
:1025E00000287FF446AF7B682A6833483360FFF7E2
:1025F00001FE00287FF43DAF02232A682F48336094
:10260000FFF7F8FD00287FF434AF2D4B2A681A68D5
:10261000DFF8B4A0DFF8B490DFF8B480294C22F0E2
:1026200006021A601A68A6F5C726A6F2FC76A5F57A
:10263000C82542F002021A60CAF80000C9F800007A
:10264000C8F800003060286020604FF49070FFF7F9
:10265000A3FD40F243434FF48862CAF80030C9F842
:102660000030C8F8002033602B6023603878BDE864
:10267000F08701220D4BAA701B68C3F31523134486
:102680009B02AB609AE700BFA086010008100B40D8
:102690000000090210100B4000001A030000090995
:1026A0006424FF1F18100B401C100B4014100B402B
:1026B00000001B0700001A1000001A3700001A065D
:1026C00028100B4014D0044000D0044004D0044033
:1026D00008D00440F8B5384B1A780AB10320F8BD89
:1026E0005B78064603B94902344D354C354B3648C4
:1026F0004FF6FF774FF481322F6021601A60FFF7A9
:1027000079FD0028EBD1314B31491B681C3406F1AF
:10271000400206F510702B68284F43F0200613F492
:10272000E00F2E603ED123681E05FCD50B6842F8F1
:10273000403C0B6842F83C3C0B6842F8383C0B6864
:1027400042F8343C0B6842F8303C0B6842F82C3CB1
:102750000B6842F8283C0B6842F8243C0B6842F8AE
:10276000203C0B6842F81C3C0B6842F8183C0B6894
:1027700042F8143C0B6842F8103C0B6842F80C3CE1
:102780000B6842F8083C0B6842F8043C4032824235
:10279000C1D1002009490B68084A9B07FBD50D4BA6
:1027A0001360F8BD43F4E00343F020033B60FFF700
:1027B0006DFD0120EEE700BF6424FF1F30100B40C9
:1027C00008100B4004100B4010003A1110100B4081
:1027D00020100B4022000001F8B52B4B1A780AB1EB
:1027E0000320F8BD5B78044603B94902274D284E03
:1027F000284B29484FF6FF774FF481322F60316024
:102800001A60FFF7F7FC0028EBD1244B24491B6822
:102810002E4604F500772B681C4AD806FBD5336892
:1028200013F4E00F1AD104F1400254F8043B0B609A
:10283000A242FAD12B68DFF854E043F010032B607A
:102840002B6813F4E00013D19742E4D10F490B68D1
:102850000E4A9B07FBD5134B1360F8BD136843F476
:10286000E00343F010031360FFF710FD0120EDE7D4
:10287000DEF8003043F4E00343F01003CEF80030FC
:10288000FFF704FD0120E1E76424FF1F30100B4037
:1028900008100B4004100B4000003A1810100B40B9
:1028A00020100B4012000001052822D8DFE800F0BC
:1028B00003030F151B09124B124A1A60124801F04C
:1028C00049BA0F4B114A1A600F4801F043BA0C4B3A
:1028D0000F4A1A600C4801F03DBA094B0D4A1A60C4
:1028E000094801F037BA064B0B4A1A60064801F056
:1028F00031BA034B094A1A60034801F02BBA00BFF2
:102900007424FF1F000001B81815FF1F04300038A1
:102910000110003803200038010002380650013849
:1029200010B50121007801F047FF0E4A137893B1EA
:102930000D49CB7A00241846147063B1DC0703D527
:102940000A4A8869106018469A0705D4430702D5D9
:10295000074B0A6A1A6010BD064BCA69C87A1A602A
:10296000F4E700BF7824FF1F1815FF1F00E100E007
:1029700008E100E004E100E01E4B1A781AB100788B
:10298000002101F019BF70B41B4A1C49D47A0968B0
:1029900001251D70ECB172B6D37ADE071C4606D550
:1029A000174DD4682E68344094612C601C469D07F6
:1029B00006D5144D13692E68D47A3340D3612B6049
:1029C000630705D5104C536925682B4013622360BB
:1029D00062B61368DA688A4207D00C4C1C600C4A55
:1029E000D96041F080441C611A600078002170BCFD
:1029F00001F0E2BE7824FF1F1815FF1F7424FF1F8B
:102A000080E100E084E100E088E100E001401F0097
:102A100000001F80F0B4134C134A236882B017469D
:102A2000009300984FF0004680B2FF25136843F4EE
:102A300080631360D6625563D36A002BFCDABB6BEC
:102A4000DBB2FF2B0AD023680193019B9BB21B1AB8
:102A50008B42EBDB002002B0F0BC7047012002B0DB
:102A6000F0BC70478C26FF1F00C00240F8B50D4631
:102A70004FF4967116460446FFF7CCFF284B1A68B0
:102A80004FF0004042F4806245F040011A60D86285
:102A90001A465963D36A002BFCDA214918204FF0FB
:102AA00000470A6826FA00F342F48062DBB20A604B
:102AB000CF624B63CB6A002BFCDA083810F1080FA9
:102AC000EFD155B3082D0CBF8721FF21144B1A6895
:102AD0004FF0004042F480621A60D8621A4659638F
:102AE000D36A002BFCDA0E4A002716464FF0004549
:102AF000FF21136843F480631360D5625163D36A86
:102B0000002BFCDAB36BD8B21B06607000D4F8BDA2
:102B10000137B7F5807FECD1F8BD9521D6E700BF2E
:102B200000C002402DE9F0430023944F027085B0AD
:102B300083703B6801930546884610460121019E3B
:102B400001F03AFE2878012101F03CFE28780121AD
:102B500001F032FE8A4A136843F480531360062062
:102B6000FFF7A2FEDFF844E2864B9EF80BC01A681E
:102B7000B6B2BCF1000F20D072B69EF80B30DC0765
:102B8000194608D58048DEF80C1004682140CEF8BC
:102B9000181001601946980709D57C48DEF81030F6
:102BA00004689EF80B102340CEF81C3003604907E0
:102BB00000F1A48062B69EF80BC0DEF80030D96840
:102BC000914207D0724818607249DA6042F0804042
:102BD00018611960704A0A244FF00040FF21136801
:102BE00043F480631360D0625163D36A002BFCDA34
:102BF000013C14F0FF04F2D1BCF1000F18D01CF01E
:102C0000010F05D0654BDEF818209EF80BC01A6046
:102C10001CF0020F05D0624BDEF81C209EF80BC0A2
:102C20001A601CF0040F03D05E4BDEF820201A60FF
:102C30002846FFF7A1FE07E03B680293029B9B1B1F
:102C40009BB2B3F5FA6F52D8002211462846FFF71F
:102C50000DFF012881466870EED14FF4D57208212E
:102C60002846FFF703FF430727D585F802904FF06A
:102C7000000907E03B680393039B9B1B9BB2B3F5E2
:102C8000FA6F34D8002237212846FFF7EFFE4A4674
:102C900029212846FFF7EAFE68700028EAD1AB78C0
:102CA000022B39D02846FFF73BFE4046FFF7FCFDDC
:102CB0000124204605B0BDE8F083374A042194463C
:102CC0004FF0004EFF20136843F480631360C2F896
:102CD0002CE05063D36A002BFCDADCF83830013981
:102CE000DBB211F0FF016B70EDD1AA2B0FD028469B
:102CF000FFF716FE204605B0BDE8F0832A49DEF84E
:102D0000143008680340CEF820300B6052E70223ED
:102D1000AB704FF08049B5E702463A212846FFF7ED
:102D2000A5FE0028E3D11C4B1A684FF0004442F482
:102D30008062FF201A601946DC625863CB6A164A2B
:102D4000002BFBDA936B144A03F0C003C02B04BFC3
:102D50000323AB70032116464FF00044FF20136895
:102D600043F480631360D4625063D36A002BFCDAAF
:102D7000013911F0FF01B36BF1D193E78C26FF1FEE
:102D80003C8004407424FF1F80E100E084E100E007
:102D900001401F0000001F8000C0024000E100E071
:102DA00004E100E008E100E088E100E01815FF1F01
:102DB000F0B4164C164A236882B017460093009967
:102DC0004FF0004689B2FF25136843F48063136017
:102DD000D6625563D36A002BFCDABB6BDBB2FF2BE8
:102DE00043700BD123680193019B9BB25B1AB3F52F
:102DF000967FE9DD002002B0F0BC7047A3F1FE0031
:102E0000B0FA80F0400902B0F0BC70478C26FF1F7A
:102E100000C00240F8B58378032B0E46044618BF65
:102E20004E021546FFF7A8FD324611212046FFF756
:102E30001DFE18B92046FFF7BBFF20B92046FFF75B
:102E40006FFD0020F8BD204B2049214A1A608E46B4
:102E500059631A4659631E46596305F5FD70A91C4E
:102E600005F5FE77D36A13F0F00FFBD0C6F834E017
:102E7000B36B01F8013C1B1201F8023C02318F4296
:102E8000F0D105F50075A8420DD20F4A1646D36A57
:102E900013F0F00FFBD0B36B191200F8021BA8421D
:102EA00000F8013CF3D3084B0949084A1960194658
:102EB0005A63CB6A044A13F0F00FFAD02046936BA2
:102EC000FFF72EFD0120F8BD00C00240FFFF00907B
:102ED00000041F80F0B4314E33684FF0004743F4D4
:102EE000806333603D46F762344671633346511C5C
:102EF00002F20127E26A002AFCDA1A6811F8016C72
:102F000042F480621A60DD625E63E26A002AFCDAE3
:102F10001A6811F8026B42F480628F421A60DD6217
:102F20005E63E7D11D49CA6A1C4B002AFBDA1A68A6
:102F30004FF0004542F48062FF241A601946DD62BA
:102F40005C63CB6A154A002BFBDA13684FF000452F
:102F500043F48063FF2413601146D5625463CB6A47
:102F60000E4A002BFBDA13684FF0004543F48063F0
:102F7000FF2413601146D5625463CB6A074A002BC5
:102F8000FBDA936BDBB203F01F024370A2F1050082
:102F9000B0FA80F04009F0BC704700BF00C00240AA
:102FA00070B5044671B18378032B0D4618BF4D02EE
:102FB0001646FFF7E1FC2A4618212046FFF756FD8A
:102FC000054620B12046FFF7ABFC002070BD32461D
:102FD000FE212046FFF77EFF0028F3D04FF4167144
:102FE0002046FFF717FD0028ECD02A460D21204689
:102FF000FFF73CFD0028E5D10B4B1A684FF0004568
:1030000042F48062FF201A601946DD625863CB6A81
:10301000054A002BFBDA936B13F0FF0FD2D1204649
:10302000FFF77EFC012070BD00C00240014B024A48
:103030001A6070477424FF1F0320003838B590F9D8
:103040000530002B03DBBDE8384000F013BC04461C
:103050000121006900F04EFCF8B1257D104B13EB07
:1030600045151AD0A3790F4A012B9CBFA369EB61C8
:10307000E36912686B831B0CAB8232B105F1160158
:1030800005F1180090472B8B6B82637903F07F0367
:103090006371BDE8384000F0EDBB002038BD00BFD3
:1030A0008824FF1F7C24FF1F10B500F1080204468E
:1030B0000121006A00F012FD50B1E3693BB9637968
:1030C000A268E26163F07F036371012010BD0120FB
:1030D00010BD00BF70B50646FFF7E6FF98B1326A33
:1030E000B568117C53691479023D8D40013B74B180
:1030F0001D4402E014F0FF0407D0601900F06AFCE0
:10310000013C0028F6D1002070BD336A197CB069FB
:103110004FF4007202FA01F30344B361012070BD61
:1031200082790AB90020704710B50446FFF786FF80
:1031300018B10023A371012010BD002010BD00BFF5
:1031400070B44B1E01F10A04202203F8012FA342A0
:10315000FBD101380025072610F8014F2CB32E2C87
:103160001ED0164A01E09C4217D012F8013B002BFA
:10317000F9D1AE421FD3A4F121025D2A1BD8A4F1DC
:103180006102192A05F1010398BF203C0D44DBB20E
:1031900098BFE4B22C701D46DEE7002070BC70477B
:1031A0000A2EFAD008250A26D6E70B78B3F12000BC
:1031B00018BF0120F2E71846F0E700BFF0740000E6
:1031C00038B583793BB991F82020102A0D46044682
:1031D00003D0202A10D0002038BD022282714A8CF0
:1031E000C36153018361002301206071237525624F
:1031F000A360E360236138BD03238371496AC16121
:1032000000F11802284600F039FC0028EBD1E2E773
:10321000837913B94FF0FF3070472DE9F04F8B469B
:103220004179C90783B005465BD5C1688469641AD2
:10323000944228BF144626460194002C69D01A46B1
:10324000022ADFF8FC903D4FDFF8F880C1F3080A4E
:1032500042D0286A0479013C04EA5124E4B2BAF16C
:10326000000F62D1002C60D1002956D1EA69AA6012
:1032700090F810E04169023A02FA0EF2214411443A
:10328000CAF500746A79B442A8BF344653062DD4F7
:10329000B4F5007F2AD00846002100F02BFB00B3D4
:1032A0000AEB090E0EEB040086450BD00BF1FF3242
:1032B000734613F8011B02F8011F9842F9D1CEEBB7
:1032C00000008344E968361B2144E96021D0AA79D3
:1032D000022AC1F3080ABCD12A6A506A00EB5121C4
:1032E000CEE74FF0FF3003B0BDE8F08F3A6891426F
:1032F000D1D0D8F800000378FE2B18D05A46FFF73B
:1033000089FD0028EDD0E968361B2144A344E9601B
:10331000DDD1019803B0BDE8F08F05F10802A9687E
:1033200000F074FB0028DCD0286AAA68A0E75846A1
:10333000FFF7D0F9B0FA80F04009E2E71415FF1F5B
:103340008824FF1F8424FF1F8379012B17D930B5F0
:10335000C36883B001220DF107010446C3F343158E
:10336000FFF756FF012802D0002003B030BDE3680C
:1033700004481F3300EB4510E36003B030BD00206C
:10338000704700BF8824FF1FF8B5837913B18269A5
:103390008A4201D20020F8BD022B0F4605461AD002
:1033A00007B32B6AE9681C7C4A1E04F109037C1EE2
:1033B000DA40DC40A24211D9EB69AB6005F10806A6
:1033C00006E0A968286A00F021FB013C0028E1D052
:1033D0003246002CF5D1EF600120F8BD0029EBD07A
:1033E000A41AEBE7AF60EF600120F8BD83790BB161
:1033F000FFF724BE184670478379012B01D00020C7
:103400007047F0B54579AC0783B002461CD5856995
:103410008D420C4618D3D5B12546D6681446FFF721
:10342000B3FF88B1B5B9E169206A00F0E1FB58B19A
:10343000E56122E000F0DCFB30B16FF07042A16882
:10344000206A00F0C3FBC0B9002003B0F0BD1846ED
:1034500003B0F0BD01AAA168206A00F0D7FA0028E5
:10346000F2D0206A0F4B90F8207001994FF6F87255
:10347000102F08BF13469942DCD36379A279A56166
:1034800063F07F036371002ADED02046FFF7D6FD8C
:103490000028D9D0B5422946204628BF3146FFF73B
:1034A00073FFD2E7F8FFFF0F70B51D4B03EB41161A
:1034B000F37A13F0110F02D012F0420F1ED1194B04
:1034C00001751B680361738BB18A43EA0141C161D5
:1034D000F37A13F01803154604460DD1F36983619E
:1034E0000123837105F00F03002163716B06A16056
:1034F000E1600FD4012070BD102B01D0002070BD01
:1035000000F11802006A00F0B9FA0028F6D004238E
:10351000A371E7E72046BDE87040FFF76DBF00BF2D
:103520008824FF1F1415FF1F2DE9F04784B001AF59
:1035300006460C46104639469946FFF701FE78B319
:103540000022216A316213461546A260E260DFF86C
:10355000008108E0E52B1CD001460B22384603F021
:10356000DDF988B3E368A2699A421DD92046C3F306
:10357000431AFFF7E9FE98B10378002BEAD15DB951
:10358000D8F8003086F814A03361037823B1012500
:10359000E8E7002DFBD1F3E709F01203122B1DD051
:1035A000002004B0BDE8F08709F01203122BF7D118
:1035B000A5B9A379022BF3D02046FFF78BFD002895
:1035C000EED0214C357514E009F03003302BE7D0F4
:1035D0004A4651463046FFF767FFE2E7012130696E
:1035E00000F088F90028DBD0347D174B13EB44142E
:1035F000D6D020220021204603F0C2F997E8070028
:10360000234603C3114923F8022B0D68120C1A70CC
:103610009DB104F10E0104F11000A847238AE2894C
:1036200063822383E28200F025F90028B8D04A465D
:10363000317D3046FFF738FFB3E742F621034FF400
:1036400000622382E281EBE78824FF1F7C24FF1FB6
:103650001415FF1F10B484791CB100205DF8044BD1
:1036600070475DF8044BFFF75FBF00BF2DE9F04FD7
:103670008B46817985B001290746019205D0012347
:103680003B71002005B0BDE8F08F42799107F6D577
:10369000530708D5FC68B9698C4200F0B480FFF785
:1036A00073FE0028EBD0019BFC68002B4AD0DFF8AA
:1036B000A491DFF8A4A1DDF80480386A0679013E00
:1036C00006EA542616F0FF06C4F3080443D1002C82
:1036D00041D1B968002973D1FA69002A00F08380CA
:1036E000BA60C4F50075ADB245453AD9057C41696B
:1036F000023AAA400E4416441FFA88F51CB9F8682D
:10370000BA6990424FD23046012100F0F3F8002808
:10371000B5D04C4404EB050E74450DD00BF1FF31D0
:10372000621E0EF1FF3611F8010F02F8010F9642EA
:10373000F9D1C4EB0E04A344FC68B8EB05082C4493
:10374000FC60BAD1BB69A34262D27A79BC6142F013
:1037500080027A7165E0C4F50075ADB24545BA687E
:10376000C4D8017C4069023A8A400644B5F5007F1E
:103770001644C3D1DAF80020964204BF4FF0FF325E
:10378000CAF800202F4A10680278FE2A314633D04A
:103790005A46FFF705FC00283FF471AF0BF5007B9C
:1037A0004FF40075C8E700F065F800283FF467AFF4
:1037B0002549CAF800600A7842F001020A70A8E7B9
:1037C00003AA00F023F900283FF45CAF386A1F4BCE
:1037D00090F82050039A4FF6F871102D18BF194633
:1037E0008A42FFF47DAF3846FFF75EFC00283FF4C5
:1037F00046AF386ABA6874E75846FEF7EDFFB0FA8C
:1038000080F04009C7E7019B002B7FF450AF08E030
:103810000F4B7A791B6823B1019B13B142F08002F0
:103820007A71120709D5BB79002B3FF428AF3846CF
:10383000FFF704FC00283FF422AF019805B0BDE873
:10384000F08F00BF8424FF1F8826FF1FF8FFFF0FA3
:103850007C24FF1F8824FF1F1415FF1F00B583B0B1
:1038600002AB012203F8011D1946FFF7FFFE03B06A
:103870005DF804FB70B51A4C23780BB9012070BDBC
:10388000184D194B286819680378FE2B17D0174A72
:10389000FFF786FB88B1164E316819B900232370F3
:1038A000012070BD28680378FE2B0FD00F4AFFF768
:1038B00077FB10B100233360F0E7002070BD0B48A8
:1038C000FEF78AFFB0FA80F04009E3E70748FEF709
:1038D00083FFB0FA80F040090028EBD1EDE700BF8C
:1038E0008826FF1F8424FF1F1415FF1F8824FF1F35
:1038F0008024FF1F70B5124D2B6883420E4611D0F5
:103900000446FFF7B7FF08B9002070BD0D4B1868DB
:103910000378FE2B0CD00C4A2146FFF77BFA0028D7
:10392000F2D02C60094B197831431970012070BD19
:1039300021460548FEF7CEFEB0FA80F04009EEE7DA
:103940001415FF1F8424FF1F8824FF1F8826FF1FD4
:10395000F8B590F82030C469102B1A4B05460E4676
:1039600017461B6816D004EBD1149C4216D106F002
:103970007F06154A42F826701449287E0A780128E5
:1039800042F001020A7018D9A968114A0B44136069
:103990000120F8BD04EB11249C4208D000212046F0
:1039A000FFF7A8FF50B195F82030102B07D1F6B2E1
:1039B000054A234622F81670DEE70120F8BD2346AB
:1039C000D5E700BF1415FF1F8824FF1F8826FF1F9F
:1039D0008024FF1F10B50446FFF74CFF78B1084B59
:1039E000002103F5007203F8011F9342FBD1054A41
:1039F000054913780C6043F001031370012010BDDA
:103A00008724FF1F8826FF1F1415FF1FC36801337B
:103A10008B4218D370B590F82030102B154B04460C
:103A200016460D46C0691B680FD000EBD1109842B6
:103A30000FD105F07F01104B53F8213023F0704374
:103A40003360012070BD0020704700EB11209842C8
:103A500007D00021FFF74EFF50B194F82030102B13
:103A6000E7D1E9B2044B33F811303360012070BD67
:103A7000002070BD1415FF1F8824FF1F2DE9F0479B
:103A800082B002ADDFF8508045F8041D044691462F
:103A90004FF0000A4FF400774FF6F8760CE094F8F8
:103AA0002030227C0199102B14BF4346334607FA7D
:103AB00002F29942924408D22A462046FFF7A6FF16
:103AC0000028ECD102B0BDE8F0870120C9F800A0C1
:103AD00002B0BDE8F08700BFF8FFFF0F2DE9F04FFF
:103AE000176883B06FB301374FF0000AC36803F162
:103AF000010813B38B46064691463C46002505E077
:103B00001C461F46F3680135AB4216D9A04538BFA5
:103B10000224214601AA304638BF2746FFF776FF28
:103B2000631CD91B48B1019A002AE9D18B4510D0FA
:103B30001C46F3680135AB42E8D8002003B0BDE86D
:103B4000F08FA1F1010ABAFA8AFA07684FEA5A1A05
:103B5000CCE7012CF1D9F36801339C42EDD86FF02A
:103B6000704221463046FFF7F3FE0028E5D0A74219
:103B700014D2013C012CE0D9F36801339C42DCD81B
:103B8000621C21463046FFF7E3FE0028D5D0A7424D
:103B900004F1FF3402D0012CEED1CEE7D9F80010A9
:103BA00059B10129C9D9F36801339942C5D83A46B8
:103BB0003046FFF7CDFE0028BFD0C9F80070BAF13B
:103BC000000F01D0013737600120B7E701290CD978
:103BD000C3680133994210B403D85DF8044BFFF772
:103BE000B7BE00205DF8044B70470020704700BF4F
:103BF000F0B5022383B00546134F03600C464FF621
:103C0000F8760FE0EB6801339C4216D8FFF7A0FE70
:103C100098B195F82030019C102B0CBF33463B46E1
:103C20009C420DD201AA21462846FFF7EFFE21460D
:103C3000002210B1012C2846E4D8002003B0F0BDCA
:103C4000012003B0F0BD00BFF8FFFF0FF8B53E4BF9
:103C5000054619601446DAB1042A01D90020F8BDDE
:103C600000210846FFF746FE0028F7D0374B03EB4C
:103C7000041292F8AE215206F0D11B3403EB041467
:103C8000D4F80A30632BE9D9D4F80640002CE5D0EB
:103C900000212046FFF72EFE0028DFD02B4AB2F885
:103CA0000B30B3F5007FD9D1117C0029D6D0D38950
:103CB000002BD3D0567B002ED0D0002329762E7136
:103CC0002B74012703E009290B462974C6D007FA93
:103CD00003F0B04203F10101F5D1D68A1B4906B9C0
:103CE0004E6AB2F80EE0AE60A644C5F81CE0B2F829
:103CF0001110177C6984480106FB07E600F2FF10EB
:103D000006EB60206E626861B2F813100F4E01B9C5
:103D1000316A241A0C4424FA03F340F6F4718B42FE
:103D2000EB600BD94FF6F4718B4285BFD36A6B629F
:103D30001023202385F820300120F8BD0C2385F8BE
:103D400020300120F8BD00BF8424FF1F8824FF1FFE
:103D5000704700BF90E80C00F0B41C6859682568F3
:103D6000164F174E29432160164D17491760D6602C
:103D700015611160417A154A5C180C3194F82C4099
:103D800053F8215002EBC40149680D60017A5C18B8
:103D900003EB8101247ECD6902EBC40149680D600B
:103DA000817A581803EB810390F84000596C02EBBC
:103DB000C002F0BC53681960704700BF01401F008B
:103DC000011000380110007800001F8018760000F4
:103DD000552911D830B44A09C57A012303FA02F4EF
:103DE0002C4300EB8202C472D06801F01F0103FA79
:103DF00001F10143D16030BC704700BF552913D891
:103E000030B44D0900EB850401F01F01E368012285
:103E100002FA01F123EA0101E16021B9C37AAA4063
:103E200023EA0202C27230BC704700BF90F839200A
:103E300090F83800101A704790F8383090F8392010
:103E40009A4205D95A1C034480F83820187E7047DE
:103E50004FF0FF30704700BF90F8383090F83920AD
:103E60009A4286BF1B18187E4FF0FF30704700BF84
:103E7000704700BFB0F85E306BB190F85D30202B1A
:103E800007D8C218013380F85D30012082F83B105A
:103E90007047012303710020704700BF38B5054605
:103EA000B0F85E0090B195F85D301446C3F1210280
:103EB00094420CD805F13B001844224600F0AEFABB
:103EC00095F85D30234485F85D30204638BD0120EB
:103ED00014462871EEE700BF0023426980F83830AD
:103EE00080F8393080F85C3080F85D3080F85E30E2
:103EF00080F85F3006CA30B40D68046943662A430F
:103F000083660A60A370426990F8613016491468AC
:103F100013441D7A5B7B01EBC5051B026D6803F43E
:103F2000E06343F064032B6090F8623013449D7C9F
:103F3000DB7D01EBC5011B02496803F4E06343F03C
:103F400064030B6021685368194205D003692C2271
:103F50005A70036904229A71036920225A71036915
:103F600080229A7030BC70471876000043690CCBF1
:103F700012681A420CD0094B99420AD9084B99424F
:103F8000036994BF1C2212225A70036904229A7199
:103F9000704703692C225A70F7E700BF7F1A0600AA
:103FA0003F420F0038B50269D478E4B2E106054615
:103FB00024D51023D37063061FD504F0040404F045
:103FC000FF03002C5AD042496A6E00230B7085F81B
:103FD0005D30002A66D0904795F85D30002B61D0A7
:103FE0002B69D0229A702B6995F83B201A712B69A6
:103FF000012285F85C200222DA7038BD04F040030B
:1040000003F0FF00002BD8D19379DBB203F06001FD
:1040100060294ED0937803F0100303F0FF01B3B191
:1040200014F0010437D195F85C3095F85D10994291
:104030004BD9591C2B4485F85C1093F83B30137115
:104040002B69D0229A702B690222DA70D5E785F8A5
:104050006010937943F0200393712B6995F8391020
:104060001A791F29D2B2C6D8194800780028C2D0C0
:104070006818013185F839100276BCE72A6985F89D
:104080003930C02393702B69114A197901211170BD
:104090000222DA70B1E7C02393702B691A790222E9
:1040A000DA70AAE70122002385F85D2085F83B300D
:1040B00096E703F0DF039371AB6E23B185F8380008
:1040C00095F8390098472A69A4E71471B8E700BF4A
:1040D0008926FF1FF0B503691222DA70026993780E
:1040E0000546980687B051D5B423464C9370236893
:1040F0000293029E2A6905E023680393039B9B1B9E
:10410000042B5AD8D37803F0200303F0FF00002BD0
:10411000F2D095F85D30002B31D04FF0000E4FF00B
:10412000020C05EB0E0393F83B30137123680493E4
:10413000049F286907E09B060DD523680593059B1E
:10414000DB1B052B40D8C378DBB203F0020202F080
:10415000FF06002AEFD080F803C02E69F378DBB2A7
:10416000DF0632463FD49F063DD5DB0743D40EF130
:10417000010E95F85D305FFA8EFE7345D1D80020B0
:10418000002934D1002385F85E301BE01D4C2368E4
:104190000093009E05E023680193019B9B1B0F2B5E
:1041A00019D8D37803F0200303F0FF00002BF2D1DD
:1041B000B02385F85F00937099E790702B69802297
:1041C0009A70042007B0F0BD86702B69802204200D
:1041D0009A7007B0F0BD002393702B6980220420F1
:1041E0009A7007B0F0BD8023B3700420C8E72E6931
:1041F0008023B370C6E7BEF1000F0CBF022003207E
:10420000F6E700BF8C26FF1F2DE9F0410646122578
:104210003469002086F8380086F83900E57037697F
:10422000BC7804F020048AB0002C3CD0B420714D3E
:10423000B87028680290DDF808E0376906E02C685D
:104240000394039CCEEB0404042C47D8FC7804F0C0
:10425000200404F0FF00002CF1D0490041F00101DE
:10426000C9B2397129680491049F346905E029684D
:1042700005910599C91B05293FD8E17801F0020194
:1042800001F0FF000029F2D00227E7703169C878F9
:1042900010F0110038D1002A3AD1002B0CBFA02316
:1042A00080238B701EE0534D04F0FF002C680094B7
:1042B000DDF800C006E02C680194019CCCEB0404FE
:1042C0000F2C12D8FC7804F0200404F0FF0E002C10
:1042D000F1D1B02086F85FE0B870AAE7B870336912
:1042E00080229A700AB0BDE8F0810023BB70336968
:1042F00080229A700AB0BDE8F081A07033698022F4
:104300009A700AB0BDE8F08180238B700020E9E745
:10431000012A58D0A0248C703469217986464FF048
:10432000A80C29680691069805E029680791079965
:10433000091A05294DD8E17801F0020101F0FF08C2
:104340000029F2D0013AD2B2E770012A04BF3169E4
:1043500081F802C0BEF11F0F346943D806EB0E018D
:10436000207908760EF1010E5FFA8EFE2146012AB1
:10437000D7D12A680892089C05E02A680992099A10
:10438000121B052A31D8CA7802F0020202F0FF009F
:10439000002AF2D00222CA703269B021BEF11F0F8A
:1043A000917024D8316906EB0E02097911760EF16D
:1043B000010E5FFA8EFE13B1336980229A7086F87F
:1043C00039E070468EE7A8228A70316986460A79FC
:1043D000CFE784F80280336980229A70704686F8AD
:1043E00039E07FE721792146C1E78870F3E7326938
:1043F0001279E0E78C26FF1F0148FFF7D3BD00BF0D
:10440000A815FF1F0148FFF7CDBD00BF1416FF1F01
:104410000148FFF7C7BD00BF3C15FF1F844641EAB6
:10442000000313F003036DD1403A41D351F8043B2C
:1044300040F8043B51F8043B40F8043B51F8043B7E
:1044400040F8043B51F8043B40F8043B51F8043B6E
:1044500040F8043B51F8043B40F8043B51F8043B5E
:1044600040F8043B51F8043B40F8043B51F8043B4E
:1044700040F8043B51F8043B40F8043B51F8043B3E
:1044800040F8043B51F8043B40F8043B51F8043B2E
:1044900040F8043B51F8043B40F8043B51F8043B1E
:1044A00040F8043B51F8043B40F8043B403ABDD28D
:1044B000303211D351F8043B40F8043B51F8043B2F
:1044C00040F8043B51F8043B40F8043B51F8043BEE
:1044D00040F8043B103AEDD20C3205D351F8043BBE
:1044E00040F8043B043AF9D2043208D0D2071CBF8A
:1044F00011F8013B00F8013B01D30B8803806046B3
:10450000704700BF082A13D38B078DD010F0030328
:104510008AD0C3F10403D21ADB071CBF11F8013B98
:1045200000F8013B80D331F8023B20F8023B7BE7E7
:10453000043AD9D3013A11F8013B00F8013BF9D212
:104540000B7803704B7843708B78837060467047AC
:1045500030B42948294A2A4B2A4D6024E1210470AD
:1045600011701B78284C082B30D00A2B274828497B
:1045700037D00C2B0CBF35225D2212232A6023601A
:1045800002600B60234B24491B78244ABBB10123F2
:104590000B601360224B23491B78234A012B26D939
:1045A000042B0FD9082B1ED9102B94BF86238723E9
:1045B0000B6013601D4B01221A7030BC70470B60FA
:1045C0001360E7E784230B601360F3E700F58E20A8
:1045D0000F490830212213232A60236002600B60F8
:1045E000D0E73922F7E785230B601360E2E78023E9
:1045F0000B601360DEE700BF00400740014007404A
:104600008016FF1F08B003400CB0034008B00B40F9
:104610000CB00B408B26FF1F20B0034020B00B4096
:104620008116FF1F24B0034024B00B408A26FF1FD1
:10463000024A136801331360704700BF8C26FF1FC6
:1046400008B5104C08E0236859050DD423681A05F5
:104650000FD42368DB0411D423685803F3D500F08A
:1046600051FA23685905F1D501F000FB23681A05BA
:10467000EFD501F091FB2368DB04EDD501F022FCBE
:10468000EAE700BF3480044008B5FFF7D9FF00BF58
:10469000014B10221A80704700200540704700BF70
:1046A000094908B50B6830B16A461844A2F50052B2
:1046B000904202D20860184608BD01F039FE0C2372
:1046C00003604FF0FF3008BD8416FF1FFEE700BFF8
:1046D00010B4114B53F8302092F8804234B10123CA
:1046E00079B182F880305DF8044B704703EBC0036A
:1046F0005B681A6851B922F002021A605DF8044B37
:10470000704782F800315DF8044B704742F00302B5
:104710001A605DF8044B7047187600001C4A02EBE3
:10472000C00301295B6811D004291BD052F8300066
:10473000002280F8802229B1022920D0032922D02A
:104740001A6070474FF480721A60704752F8300058
:104750004FF4A27280F880121A601A6822F02002C8
:104760001A60704752F830104FF4A272012081F89D
:1047700080021A601A6842F020021A60704740F204
:1047800003121A6070474FF481721A60704700BFBD
:104790001876000030B4054B054D064C0022102160
:1047A0001A602A602060196030BC704714D0034042
:1047B00004D0034000D003403F2801D8FFF788BF52
:1047C000704700BF3F2801D8FFF7A8BF704700BF60
:1047D0002DE9F843054672B6204F214B214A1B684C
:1047E0003C68126862B6520102D5322B88BF013490
:1047F00095B3C3F5EA331C4EDFF86490DFF86480AC
:10480000BF334FF47A72A6FB031302FB04F404EBEC
:10481000931472B6D9F800103A68D8F800E062B67E
:10482000C1F5EA33BF33A6FB03031EF0806FC4EB70
:1048300093134FF47A7002D0322988BF013200FB03
:104840000233B3F57A7F04D3013D05D004F57A74C1
:10485000DFE701F08DF9DCE7BDE8F8838C26FF1F68
:1048600018E000E004ED00E089888888F8B53E4B48
:104870003E49DFF818C13E4E3E4ADFF814E13E4D96
:104880003E4C3F4F4FF0006018604FF08050186072
:104890004FF0005018604FF0804018604FF000401B
:1048A00018600020086028234EF6FF71CCF8001035
:1048B000CEF8003033600EF5012E13602B602360BC
:1048C00005F500253B6004F50024B36207F50027D9
:1048D000936206F5012602F501220EF1100E05F68F
:1048E000E87504F6E87407F57F67103220362B6010
:1048F0002360CEF800303B6013603360214EBB6113
:10490000936109223260A7F5002706F58056203F03
:10491000083638603160BB60F36047F8042C06F558
:10492000FD2607F5FE2706F2FC7604373060396075
:10493000B360FB6046F8042C0836C7F8FC0F06F697
:10494000FC76114831602B6023600260FFF700FEA7
:104950003220FFF73DFF00F001FD4FF4AF70BDE8DE
:10496000F840FFF735BF00BF04E100E004800340DA
:10497000148003401C800340248003402C800340AB
:10498000348003400080034000900B4008800340C7
:104990000C800340431E032B14D872B60A4951F809
:1049A000230068B170B4094C058834F813204668B8
:1049B00041F82360521B24F8132062B670BC704784
:1049C00062B6704700207047E826FF1FF02AFF1FDD
:1049D000013803280BD872B6074B53F8203043B187
:1049E00000205B680130002BFBD162B670470020CD
:1049F00070471846F9E700BF3C27FF1FF0B472B6B6
:104A00001A491B4E012311F8014B194F9A00240734
:104A100042F0010505D556F8324064B156F835200C
:104A2000BAB10133052BEED162B6124B00221A70D7
:104A3000F0BC00F017BD0F4C0F4D217847F83250F5
:104A400007EB431308304A1E5860227062B6F0BC70
:104A500070470849094B0A7847F8353007EBC5031A
:104A60000830013A58600A7062B6F0E744780000F6
:104A70000000FF1F6527FF1F88004000C80040009E
:104A8000431E032B1DD81B4A400140F0100030B4D8
:104A9000104472B6184CE25C032A1BD8DFE802F01F
:104AA0000212151703220D88E25410F0080F14BFEC
:104AB000C823882343EA054308310360416062B696
:104AC00030BC704708300222EDE70522EBE70830E2
:104AD0000422E8E7094A52F8230038B1084A52F89C
:104AE0002300416042F8231062B6E9E742F8231040
:104AF000034AF7E70000FF1F7427FF1F3C27FF1F33
:104B00004C27FF1F2DE9F04FDFF804A3DFF804B3B3
:104B100087B044E0A94F4FEA930807EBC809013E6C
:104B2000D9F8042003F00803F6B2A2F1080003F05C
:104B3000FF04002B40F0FE8057F838301B0C99B270
:104B400022F8081C002B00F0EC809D4B22F8064C4C
:104B500042F8044C53F82620002A00F02B82994D8D
:104B600055F826305860984C45F8260034F8163031
:104B7000194424F8161000F055FC002800F01382A8
:104B8000924A934B19F0080F00F1080018BF134622
:104B9000C9F8040047F8383008238AF800309AF83A
:104BA0000040E4B260071AD58A4B1B78A3B18A494A
:104BB0000A7802F0FF0322B1013BDBB20B7003B9AC
:104BC00000BE86490A7802F0FF032AB1013BDBB23E
:104BD0000B70002B00F0BD8104238AF8003004F034
:104BE000080303F0FF02002B00F0C8809BF80030A0
:104BF000DBB21E098ED19C08704F57F8342007EBAA
:104C0000C401C2F38302013A49680C2A00F285808C
:104C1000DFE802F07979838383838383428383830C
:104C2000070008686E4B6F4D0193684B4A686E4EE3
:104C300047F8343081B240F28164694B6A60286081
:104C400000220120A1421A603A61BA61307000F27C
:104C5000E380B1F5D06F80F02782B1F5817F00F05D
:104C6000E08100F2C381802900F03682822940F081
:104C7000DE81A9885D4B01F07F01042900F2D88113
:104C80005B4C89000B44227062701A78930740F1E4
:104C900022832070022023E2514B01931A683AB319
:104CA000544B514E5449188834780D784028864624
:104CB00045F0020828BF4FF0400E002C84F001049C
:104CC0003470CEEB00000CBF8824C82407EBC80664
:104CD00080B285F0010544EA0E447260188047F8FE
:104CE000384072440D70002800F0B780019B1A60B4
:104CF0003C4B1A88B2F5A06F0FD100219A785970F9
:104D00003E4B1A7009E0374A108842F22102904265
:104D100000F0A8802D4A47F83420394A0123137047
:104D20003AE72A4A2A4B19F0080F18BF134647F8EA
:104D3000383031E700F096FB324A334952F82630DA
:104D4000002B00F03B8158688C5D42F8260003F18F
:104D50000802C9F80420032C05D8DFE804F02C026F
:104D6000292602228A551A8819F0080F0CBF8823B9
:104D7000C82343EA024347F838300DE7E00700F163
:104D8000EB80210600F12881A20706D51F4A2049A1
:104D900013780220DBB213700870E30602D51C4BB7
:104DA00010221A7007B0BDE8F08F04228A55DAE7A6
:104DB00005228A55D7E703228A55D4E70000FF1F52
:104DC000E826FF1F9426FF1FF02AFF1FC80040009F
:104DD000880040007027FF1FF926FF1F7827FF1F5C
:104DE0009026FF1F5C27FF1FF826FF1FC0200740EB
:104DF0006827FF1FA426FF1F6427FF1F9820074076
:104E0000942007403C27FF1F7427FF1F882007407E
:104E1000802007409020074042F22104A14200F088
:104E2000948043D8B1F5086F00F0A881B1F5106FF8
:104E300040F0FD80B84AB94CA978117004F18005A2
:104E400003E00834AC4200F09E81236A1906F8D5CD
:104E5000606A083800F006FBF3E7BEF1400F18BFA8
:104E6000002243E7AE4ACD1D11F8013B02F8013F95
:104E7000A942F9D1AB4A1268862A00F01181AA49E9
:104E8000AA4E0A78307882F00105002842F002022A
:104E90000D700CBF8821C82147F8321007EBC20201
:104EA00080F0010000213070516033E742F221248C
:104EB000A14240F0FE81DFF8BCC29D4B9D49AC7819
:104EC000DCF800501D6081460C7000200290804686
:104ED0008446044694490D7845F0020E07EBCE0354
:104EE000B9F1000F5C600CBF8824C82444EA0803B1
:104EF00085F0010447F83E3032700C70DFF81CE298
:104F00008A4BDFF82482002840F09880BCF1400FE3
:104F10001BD144F0020407EBC403029FDFF8FCE15D
:104F20005F60002A40F09F80020442F0880207443C
:104F30004EF8342086F800900D703B46402804D18E
:104F400000207D4A019910800B607C4A0123137078
:104F5000E3E600F0F3FB3FE6704B784872491A61D4
:104F60004FF0020E80F800E0754F0A707549196025
:104F70009960754E754D764C9A610D213970FF21FF
:104F80003170DFF8F4E129702270724D724A8EF8A8
:104F900000109F27012406F8047C5D600470DA602D
:104FA00007B0BDE8F08F6D4A47F838001378013339
:104FB0001370F1E543F82600694DD4E58B5D032BB2
:104FC00067D801A252F823F0994B0000994B0000DA
:104FD0001D5000001750000059495C4B80220D20E5
:104FE00008701A70A2077FF5D8AECFE640F2023201
:104FF000914240F05681A98801F07F01042916D81A
:105000006A88A2B94E4C89000C448146217841F04F
:105010000201217059E701238B55BDE500238B5513
:10502000BAE5A98801F07F01042940F24781444B89
:105030000F221A70414A012313706EE640287FF652
:1050400068AF44F002040EEBC401029E4E60AAB1A8
:10505000444A83F800903346403888F80050403383
:105060004EF834206DE70204029B86F8009042F06F
:10507000C8020D7003444EF834205FE783F80090B7
:10508000029B304A88F80050403840334EF83420B4
:1050900057E719F0080F0CBF022303238B557BE55C
:1050A000314A0F211170EAE6304A5468002CBED014
:1050B0006888B5F804E003E00C325468002CB6D0E0
:1050C00013888342F8D153887345F5D1000A032829
:1050D0000CBF2078108903E0254C022022706270FA
:1050E000EA88824280F00C810F490D78402A45F011
:1050F000020E944607EBCE0028BF4FF0400C04EBA5
:105100000C0344600293CCEB02004FEA0C484FF0D2
:1051100001090022C824E9E67027FF1F0000FF1FD5
:10512000F72AFF1FF82AFF1F6427FF1FF826FF1F1B
:10513000002BFF1F8827FF1FA426FF1F9420074076
:10514000C02007408800400088200740802007409A
:1051500098200740A826FF1FFC26FF1F6527FF1F7A
:105160009426FF1FC8004000F926FF1F4878000062
:105170006827FF1F8C26FF1F8C200740684A694C58
:1051800012782270ACE76849684B694A0291694914
:10519000694C6A4D039405964FF0000988461C46F9
:1051A00016460495206828B1456800F05BF928464A
:1051B000002DF9D100232360049B30681A46002398
:1051C00042F8293028B1456800F04CF92846002DF6
:1051D000F9D100223260029A98F80030114600227C
:1051E00041F8042B039A0291023B4FF0000122F890
:1051F0001910032B07D8DFE803F0340234024FF014
:10520000010388F8003009F10109B9F1040F04F134
:10521000040406F1040608F10108C3D1484B059EB9
:10522000DFF83091DFF8308100211970012518F87E
:10523000013B09F8043B1A0718D4AC0044F0020201
:1052400044F00304002347F8323047F834303D4B34
:10525000994505F10105EAD196F8009089F001021F
:1052600033E64FF0000388F80030CCE700F0DAF8BE
:10527000AC0007EB451300F10802002837D05A6054
:10528000314B47F8343000F0CDF844F0010307EB20
:10529000C30200F1080100B351602C4A47F83320E3
:1052A000CCE7B1F5A06F7FF4C2AE00224FF0010948
:1052B0000BE642F221329142F7D0B8E66A88002A22
:1052C0007FF4B5AE224C89000C448146217821F050
:1052D00002012170F9E5022002E7194B44F00102B6
:1052E0001B7847F83200164A01331370A6E7144BB7
:1052F000134A1B78AC00013347F834001370C2E73F
:105300004028844628BF4FF0400C04EB0C03CCEB44
:1053100000004FEA0C48029300224FF00109D9E542
:105320007027FF1F6827FF1F4C27FF1FE826FF1F5E
:105330003C27FF1F7427FF1FF02AFF1F9426FF1F23
:105340006527FF1FD420074088004000C8004000A8
:10535000C0200740C4200740447800002DE9F843EE
:10536000244C00F08FFF002204F1880023461A60CD
:105370005A60083383424FF00001F8D11E481F4A9B
:105380000368DFF890E01E4F1E4D1F4EDFF8888047
:10539000DFF888C0DFF8889043F480230360136847
:1053A0001A4843F040731360C4F307238EF80030AB
:1053B000C4F307433B70240EFF2302F5C9222C706F
:1053C00002F5847288F80030114D8CF8003033708B
:1053D000012389F8003070268EF864104FF4001411
:1053E000102107F82C3C2E70046011700EF1640E31
:1053F000BDE8F8830000FF1F3480044000D800405F
:10540000B0200740B42007401020074004E100E02E
:1054100035E400E09C2007408020074088200740BA
:105420009420074072B60D480268B2FA82F30B2B43
:1054300010DC4FF00041D94022EA0102026062B65E
:10544000074803EBC303DB00C2180021C15010461C
:105450005160704762B60020704700BF8816FF1F7A
:105460009811FF1F0D4B0E4AC31AA2FB03231B0901
:105470000B2B0CD80B4A127852B972B60A484FF06F
:105480000041026821FA03F31A43026062B67047D2
:10549000064A1278002AF0D0FFF7B0BA9811FF1F21
:1054A000398EE3386527FF1F8816FF1F7027FF1FFF
:1054B00038B50F4D286878B143880288C118013388
:1054C00093420C7A02D24380204638BDFFF7CAFFD0
:1054D000002320462B6038BD064B1B782BB10320E0
:1054E000FFF758FA28600028E6D14FF0FF3038BDAA
:1054F0008427FF1F7027FF1F10B5094C206818B1C3
:1055000043881844007A10BD064B1B782BB103204A
:10551000FFF740FA20600028F2D14FF0FF3010BDB5
:105520008427FF1F7027FF1F044B054A1B689088C4
:105530001BB11A885B88D31A184470478427FF1F51
:10554000F02AFF1F0B4B1B789BB110B50A4C20684B
:1055500048B1FFF787FF002303202360FFF71AFA03
:1055600030B1FFF77FFF0320FFF714FA0028F8D1CE
:1055700010BD70477027FF1F8427FF1F2DE9F04FD4
:10558000DFF8F89083B0012289F80020019169B317
:10559000DFF8EC80364F019E8346D8F80000B0B3A8
:1055A000344D4488C4F14001B14228BF314604EB78
:1055B000010E00221FFA8EFE2A70761AA0F802E071
:1055C00000F1080251B1013C224459441BF8014B3F
:1055D00002F8014F8B45F9D1B0F802E0BEF13F0F60
:1055E0000BD8254A05211170002ED6D10198002331
:1055F00089F8003003B0BDE8F08F402202800146F8
:105600000420FFF73DFA0022C8F80020E9E73A78C5
:105610002AB3184D4DF2E9044FF0010A07E0013CAE
:1056200016D02A78A2B900F0A3FA3A78BAB10420C9
:10563000FFF7CEF90728F2D889F800A0FFF7F2FEAD
:10564000C8F800000028ACD10C4B013C1870E8D120
:1056500001234FF0FF302B7003B0BDE8F08F002323
:105660004FF0FF3089F8003003B0BDE8F08F00BF85
:105670007027FF1F8027FF1F7827FF1F7927FF1F35
:105680007C27FF1F00B583B002AB012103F8010D99
:105690001846FFF773FF03B05DF804FB38B50E4DF5
:1056A0000E4C28680123237028B140880023237002
:1056B000C0F1400038BD0A4B1B7813B900202070A0
:1056C00038BD0420FFF784F90728F7D8FFF7AAFEB2
:1056D00028600028E9D1F1E77C27FF1F7927FF1F09
:1056E0007027FF1FF8B5114B1B788BB1104E114D71
:1056F000346801272F7064B10F4A63880027177040
:10570000214623800420FFF7BBF9376000232B706C
:10571000F8BDFFF787FE084B28B1014604201C7036
:10572000FFF7AEF9F2E71F70F0E700BF7027FF1F29
:105730007C27FF1F7927FF1F7827FF1F38B50E4BE7
:105740001B7873B90D4C216861B103F0FF054B88DC
:105750000B800420FFF794F9256038BD084B012227
:105760001A7038BDFFF75EFE0028F7D00146BDE88D
:1057700038400420FFF784B97927FF1F7C27FF1FDB
:105780007827FF1FC029F0B428BFC02172B6114B83
:10579000114E1860002333607360B360F3603361AF
:1057A0007361012799B15D0903F01F0456F82520A4
:1057B00007FA04F4013322438B4246F82520F2D144
:1057C0000023437001338B4200F58270F9D162B639
:1057D000F0BC70479427FF1F9C27FF1F70B472B660
:1057E000204B196821B9596821B30433202200E005
:1057F00000221D4E3478B1FA81F54FF00040E840A8
:105800000134E4B221EA00003470186062B6531B20
:1058100003EB83139A00154B1549186802F5FB53E7
:105820001C330122C2540A78A242184438BF0C70BB
:1058300070BC7047996821B9D96829B10C336022CE
:10584000D7E708334022D4E7196921B9596929B14A
:105850001433A022CDE710338022CAE762B608468F
:10586000E6E700BF9C27FF1F9927FF1F9427FF1F14
:105870009027FF1F427872B60378012B03D9013BB2
:10588000037062B6704770B456110A4D0A4C55F851
:1058900026102378D2434FF0004002F01F0220FA76
:1058A00002F21143013B45F82610237062B670BC2A
:1058B000704700BF9C27FF1F9927FF1FC368B3B124
:1058C00030B401E0DB688BB1187A9042FAD15868A5
:1058D0005C7A006950F82450002DF3D140F8241070
:1058E000087801300870DB68002BEDD130BC7047C0
:1058F000437A8B4206D90369002253F8210043F80A
:1059000021207047002070474368427A5B7A9A42B0
:105910000ED872B60168CA680AB90AE01A46D36896
:10592000002BFBD1D060426801230B72137262B668
:105930007047C860F7E700BF084B1A785AB90848A3
:10594000084910B4D0240470012210460A601A706D
:105950005DF8044B70470020704700BF9827FF1F79
:1059600040E400E008E100E01A491B4A1B48F8B592
:105970000B681B4D046843F080730B60136843F0A1
:10598000010313602E6814B915E064699CB1237A91
:10599000002BFAD023682F681B68204698472B6895
:1059A000E188DB1B1B099AB28B42A28088BFE28090
:1059B0006469002CEBD10A4B0A4A1B6810880A4C18
:1059C0009B1B1B0999B28342218001D91180F8BD2C
:1059D000F8BD00BFFCED00E0001000E08C27FF1FC9
:1059E000041000E09A27FF1FB427FF1FF0B572B61E
:1059F00099B902688AB103790F2B0ED8274C2188F8
:105A000041FA03F5ED070AD503F1007303F590633E
:105A1000B2EB431F03D162B6F0BD204C21880023B6
:105A200041FA03F212F0010207D00133102BF7D133
:105A300062B6002203710260F0BD01259D4029433A
:105A4000218062B6164E174D174FDFF864E0D9B2C9
:105A50000171346844F0020434602C6844F002049C
:105A60002C60A6F580268224A5F5802503F100731D
:105A70003C6003F59063223E243D0C4C8EF80010F0
:105A80005B0131702970217003601A605A609A605E
:105A9000DA601A615A619A61DA61F0BDB627FF1FB8
:105AA000408004403C800440008000401F80004053
:105AB0001A80004003790F2B12D80A4A10B41370D1
:105AC00072B6094904790A880123A34022EA030334
:105AD0000B8062B6102200235DF8044B0271036054
